:020000040800F2
:1000000000800120DD800008B9550008BD550008BA
:10001000C1550008C5550008C9550008000000007A
:10002000000000000000000000000000CD550008A6
:10003000D155000800000000D5550008D95500082A
:100040002D8100082D8100082D8100082D810008D8
:100050002D8100082D8100080D5600081556000856
:100060002D8100082D8100082D8100082D810008B8
:100070002D8100082D8100082D8100082D810008A8
:100080002D8100082D8100082D810008000000004E
:100090000000000000000000000000002D810008AA
:1000A0002D8100082D8100082D8100082D81000878
:1000B0002D8100082D8100081D5600082D810008A3
:1000C0002D8100082D8100082D8100082D81000858
:1000D0002D810008E95500082D810008000000006E
:1000E000295600082D8100082D810008000000001D
:1000F0000000000000000000000000002D8100084A
:10010000000000002D8100082D8100082D810008CD
:1001100000000000000000000000000000000000DF
:100120002D8100082D8100082D8100082D810008F7
:100130002D81000800000000000000000000000009
:100140000000000000000000000000002D810008F9
:100150002D8100082D8100082D810008F55500082B
:100160002D8100082D810008000000000000000023
:10017000000000000000000000000000000000007F
:10018000000000002D8100080000000000000000B9
:040190002D810008B5
:1001980010B5054C237833B9044B13B10448AFF3B9
:1001A80000800123237010BD8003002000000000A0
:1001B8001498000808B5034B1BB103490348AFF373
:1001C800008008BD00000000840300201498000887
:1001D80081F0004102E000BF83F0004330B54FEAF0
:1001E80041044FEA430594EA050F08BF90EA020F5D
:1001F8001FBF54EA000C55EA020C7FEA645C7FEAF0
:10020800655C00F0E2804FEA5454D4EB5555B8BF12
:100218006D420CDD2C4480EA020281EA030382EA83
:10022800000083EA010180EA020281EA0303362D15
:1002380088BF30BD11F0004F4FEA01314FF4801CE8
:100248004CEA113102D0404261EB410113F0004FFA
:100258004FEA03334CEA133302D0524263EB4303B1
:1002680094EA050F00F0A780A4F10104D5F1200E4F
:100278000DDB02FA0EFC22FA05F2801841F10001AA
:1002880003FA0EF2801843FA05F359410EE0A5F17E
:1002980020050EF1200E012A03FA0EFC28BF4CF0AF
:1002A800020C43FA05F3C01851EBE37101F0004565
:1002B80007D54FF0000EDCF1000C7EEB00006EEB72
:1002C8000101B1F5801F1BD3B1F5001F0CD34908FC
:1002D8005FEA30004FEA3C0C04F101044FEA445253
:1002E80012F5800F80F09A80BCF1004F08BF5FEADA
:1002F800500C50F1000041EB045141EA050130BDBA
:100308005FEA4C0C404141EB010111F4801FA4F15C
:100318000104E9D191F0000F04BF01460020B1FAB1
:1003280081F308BF2033A3F10B03B3F120020CDAE9
:100338000C3208DD02F1140CC2F10C0201FA0CF0C7
:1003480021FA02F10CE002F11402D8BFC2F1200C2C
:1003580001FA02F120FA0CFCDCBF41EA0C019040E2
:10036800E41AA2BF01EB0451294330BD6FEA04042B
:100378001F3C1CDA0C340EDC04F11404C4F1200216
:1003880020FA04F001FA02F340EA030021FA04F328
:1003980045EA030130BDC4F10C04C4F1200220FA7F
:1003A80002F001FA04F340EA0300294630BD21FABD
:1003B80004F0294630BD94F0000F83F4801306BF83
:1003C80081F480110134013D4EE77FEA645C18BF77
:1003D8007FEA655C29D094EA050F08BF90EA020F0E
:1003E80005D054EA000C04BF1946104630BD91EA06
:1003F800030F1EBF0021002030BD5FEA545C05D109
:100408004000494128BF41F0004130BD14F5800447
:100418003CBF01F5801130BD01F0004545F0FE41BB
:1004280041F470014FF0000030BD7FEA645C1ABFF0
:10043800194610467FEA655C1CBF0B46024650EA27
:10044800013406BF52EA033591EA030F41F4002153
:1004580030BD00BF90F0000F04BF0021704730B5D9
:100468004FF4806404F132044FF000054FF00001AE
:1004780050E700BF90F0000F04BF0021704730B56F
:100488004FF4806404F1320410F0004548BF404244
:100498004FF000013EE700BF42004FEAE2014FEA99
:1004A80031014FEA02701FBF12F07F4393F07F4F74
:1004B80081F06051704732F07F4208BF704793F077
:1004C8007F4F04BF41F40021704730B54FF460748A
:1004D80001F0004521F000411CE700BF50EA01028D
:1004E80008BF704730B54FF000050AE050EA010236
:1004F80008BF704730B511F0004502D5404261EBA6
:1005080041014FF4806404F132045FEA915C3FF4E6
:10051800D8AE4FF003025FEADC0C18BF03325FEA83
:10052800DC0C18BF033202EBDC02C2F1200300FA34
:1005380003FC20FA02F001FA03FE40EA0E0021FA59
:1005480002F11444BDE600BF70B54FF0FF0C4CF447
:10055800E06C1CEA11541DBF1CEA135594EA0C0FF9
:1005680095EA0C0F00F0DEF82C4481EA030621EA34
:100578004C5123EA4C5350EA013518BF52EA03356F
:1005880041F4801143F4801338D0A0FB02CE4FF021
:100598000005E1FB02E506F00042E0FB03E54FF051
:1005A8000006E1FB03569CF0000F18BF4EF0010E49
:1005B800A4F1FF04B6F5007F64F5407404D25FEA45
:1005C8004E0E6D4146EB060642EAC62141EA5551F8
:1005D8004FEAC52040EA5E504FEACE2EB4F1FD0C3A
:1005E80088BFBCF5E06F1ED8BEF1004F08BF5FEAB8
:1005F800500E50F1000041EB045170BD06F000466A
:1006080046EA010140EA020081EA0301B4EB5C0416
:10061800C2BFD4EB0C0541EA045170BD41F480110E
:100628004FF0000E013C00F3AB8014F1360FDEBF33
:10063800002001F0004170BDC4F10004203C35DA0F
:100648000C341BDC04F11404C4F1200500FA05F392
:1006580020FA04F001FA05F240EA020001F0004233
:1006680021F0004110EBD37021FA04F642EB0601A9
:100678005EEA430E08BF20EAD37070BDC4F10C04D3
:10068800C4F1200500FA04F320FA05F001FA04F297
:1006980040EA020001F0004110EBD37041F1000183
:1006A8005EEA430E08BF20EAD37070BDC4F120058E
:1006B80000FA05F24EEA020E20FA04F301FA05F2F6
:1006C80043EA020321FA04F001F0004121FA04F29E
:1006D80020EA020000EBD3705EEA430E08BF20EA6E
:1006E800D37070BD94F0000F0FD101F000464000A8
:1006F80041EB010111F4801F08BF013CF7D041EA2A
:10070800060195F0000F18BF704703F0004652002D
:1007180043EB030313F4801F08BF013DF7D043EAFE
:100728000603704794EA0C0F0CEA135518BF95EAB4
:100738000C0F0CD050EA410618BF52EA4306D1D13B
:1007480081EA030101F000414FF0000070BD50EA5A
:10075800410606BF1046194652EA430619D094EAE4
:100768000C0F02D150EA013613D195EA0C0F05D1CE
:1007780052EA03361CBF104619460AD181EA030122
:1007880001F0004141F0FE4141F470014FF00000DA
:1007980070BD41F0FE4141F4780170BD70B54FF075
:1007A800FF0C4CF4E06C1CEA11541DBF1CEA1355F5
:1007B80094EA0C0F95EA0C0F00F0A7F8A4EB0504D7
:1007C80081EA030E52EA03354FEA013100F08880CE
:1007D8004FEA03334FF0805545EA131343EA126397
:1007E8004FEA022245EA111545EA10654FEA00264C
:1007F8000EF000419D4208BF964244F1FD0404F505
:10080800407402D25B084FEA3202B61A65EB030560
:100818005B084FEA32024FF480104FF4002CB6EB1D
:10082800020E75EB030E22BFB61A754640EA0C009D
:100838005B084FEA3202B6EB020E75EB030E22BFDD
:10084800B61A754640EA5C005B084FEA3202B6EB1E
:10085800020E75EB030E22BFB61A754640EA9C00DD
:100868005B084FEA3202B6EB020E75EB030E22BFAD
:10087800B61A754640EADC0055EA060E18D04FEA6B
:10088800051545EA16754FEA06164FEAC30343EA0B
:1008980052734FEAC2025FEA1C1CC0D111F4801FD8
:1008A8000BD141EA00014FF000004FF0004CB6E7D1
:1008B80011F4801F04BF01430020B4F1FD0C88BF70
:1008C800BCF5E06F3FF6AFAEB5EB030C04BFB6EB7B
:1008D800020C5FEA500C50F1000041EB045170BD6E
:1008E8000EF0004E4EEA113114EB5C04C2BFD4EB9B
:1008F8000C0541EA045170BD41F480114FF0000E1F
:10090800013C90E645EA060E8DE60CEA135594EA9A
:100918000C0F08BF95EA0C0F3FF43BAF94EA0C0F9D
:100928000AD150EA01347FF434AF95EA0C0F7FF412
:1009380025AF104619462CE795EA0C0F06D152EA66
:1009480003353FF4FDAE1046194622E750EA41064A
:1009580018BF52EA43067FF4C5AE50EA41047FF45B
:100968000DAF52EA43057FF4EBAE12E74FF0FF3CC0
:1009780006E000BF4FF0010C02E000BF4FF0010C91
:100988004DF804CD4FEA410C7FEA6C5C4FEA430C0A
:1009980018BF7FEA6C5C1BD001B050EA410C0CBF59
:1009A80052EA430C91EA030F02BF90EA020F0020BB
:1009B800704710F1000F91EA030F58BF994208BF22
:1009C80090422CBFD8176FEAE37040F001007047DF
:1009D8004FEA410C7FEA6C5C02D150EA013C07D136
:1009E8004FEA430C7FEA6C5CD6D152EA033CD3D081
:1009F8005DF8040B704700BF8446104662468C467B
:100A08001946634600E000BF01B5FFF7B7FF0028AD
:100A180048BF10F1000F01BD4DF808EDFFF7F4FFD6
:100A28000CBF012000205DF808FB00BF4DF808ED61
:100A3800FFF7EAFF34BF012000205DF808FB00BF84
:100A48004DF808EDFFF7E0FF94BF012000205DF8A6
:100A580008FB00BF4DF808EDFFF7CEFF94BF01205B
:100A680000205DF808FB00BF4DF808EDFFF7C4FF54
:100A780034BF012000205DF808FB00BF4FEA4102A7
:100A880012F5001215D211D56FF47873B3EB6252D8
:100A980012D94FEAC12343F0004343EA505311F0FF
:100AA800004F23FA02F018BF404270474FF0000091
:100AB800704750EA013005D111F0004008BF6FF0CF
:100AC800004070474FF00000704700BF4A0011D245
:100AD80012F5001211D20DD56FF47873B3EB625290
:100AE8000ED44FEAC12343F0004343EA505323FA9C
:100AF80002F070474FF00000704750EA013002D111
:100B08004FF0FF3070474FF00000704753B94AB9B3
:100B1800002908BF00281CBF4FF0FF314FF0FF30FD
:100B280000F072B9ADF1080C6DE904CE00F006F8DA
:100B3800DDF804E0DDE9022304B070472DE9F04751
:100B4800089E04468846002B4BD18A42154667D931
:100B5800B2FA82F24AB1C2F1200701FA02F320FA8E
:100B680007F7954047EA030894404FEA154E230CCF
:100B7800B8FBFEF71FFA85FC0EFB178843EA08430B
:100B880007FB0CF1994209D9EB1807F1FF3080F007
:100B98001B81994240F21881023F2B445B1AA4B290
:100BA800B3FBFEF00EFB103344EA034400FB0CFCDD
:100BB800A44509D92C1900F1FF3380F00781A44519
:100BC80040F2048102382C4440EA0740A4EB0C04AC
:100BD80000271EB1D4400023C6E900433946BDE8CA
:100BE800F0878B4209D9002E00F0EB800027C6E978
:100BF800000138463946BDE8F087B3FA83F7002F7D
:100C080047D18B4202D3824200F2FA80841A61EB08
:100C1800030301209846002EE0D0C6E90048DDE72E
:100C280002B9FFDEB2FA82F2002A40F08F80491B37
:100C38004FEA154E1FFA85F80127B1FBFEFC230C7D
:100C48000EFB1C1143EA014308FB0CF1994207D93A
:100C5800EB180CF1FF3002D2994200F2CD808446A5
:100C6800591AA3B2B1FBFEF00EFB101443EA044478
:100C780008FB00F8A04507D92C1900F1FF3302D270
:100C8800A04500F2B6801846A4EB080440EA0C40E0
:100C98009FE7C7F1200CBB4022FA0CFE4EEA030E78
:100CA80001FA07F420FA0CF521FA0CF34FEA1E4872
:100CB8002543B3FBF8F92C0C08FB19331FFA8EFAFD
:100CC80044EA034309FB0AF49C4202FA07F200FAD9
:100CD80007F10BD91EEB030309F1FF3080F0878081
:100CE8009C4240F28480A9F1020973441B1BADB2F7
:100CF800B3FBF8F008FB103345EA034400FB0AFA9B
:100D0800A24508D91EEB040400F1FF336BD2A245BB
:100D180069D90238744440EA0940A0FB0289A4EB6F
:100D28000A044C45C2464B4654D351D0002E69D0D4
:100D3800B1EB0A0564EB030404FA0CFCFD40FC402B
:100D48004CEA0505C6E90054002747E7C2F120032D
:100D580020FA03F7954001FA02F021FA03F34FEA6B
:100D6800154E3843010CB3FBFEF71FFA85F80EFB4E
:100D7800173341EA034107FB08F38B4204FA02F4F4
:100D880007D9691807F1FF3C2FD28B422DD9023FB2
:100D98002944CB1A81B2B3FBFEF00EFB103341EAB3
:100DA800034100FB08F38B4207D9691800F1FF3CA7
:100DB80017D28B4215D902382944C91A40EA074785
:100DC8003BE73746304609E70746E7E61846FBE6BD
:100DD8004145ABD2B8EB020A69EB0E020138134663
:100DE800A4E76046E9E7184695E76746D1E78146F4
:100DF8007CE702382C4447E7ACF1020C2B442FE780
:100E0800384608E73746E9E6704700BF084B094A05
:100E18001B6810B5A2FB03230446980900F09AF852
:100E2800214600224FF0FF3000F052F8002010BD9C
:100E380058000020D34D621008B50B4B1A6842F4D5
:100E480000721A601A6842F480621A601A6842F4E2
:100E580080721A60032000F029F80020FFF7D6FFFF
:100E680004F01CFA002008BD003C0240024A136846
:100E780001331360704700BF90040020014B1868CD
:100E8800704700BF9004002030B583B00190FFF791
:100E9800F5FF019C631C054618BF0134FFF7EEFF00
:100EA800401BA042FAD303B030BD00BF074AD36845
:100EB8004FF6FF010B40000243F0BF6300F4E0600F
:100EC80043F400330343D360704700BF00ED00E0F4
:100ED800184BDB68C3F3022330B4C3F10705042DB4
:100EE80003F1040428BF0425062C19D9033B4FF04D
:100EF800FF349C4022EA04044FF0FF32AA4021EA62
:100F0800020101FA03F2224312010028D2B20ADBDD
:100F180000F1604000F5614080F8002330BC704764
:100F280000242346E8E7044B00F00F0003441A7638
:100F380030BC704700ED00E0FCEC00E000F01F0161
:100F480001234009024A8B4042F82030704700BF15
:100F580000E100E00138B0F1807F0ED2084B10B4F8
:100F6800084C5860F02084F823000022072110461E
:100F78009A6019605DF8044B70470120704700BF04
:100F880010E000E000ED00E090F83530022B03D0CF
:100F980080234365012070470268052380F83530B7
:100FA800136823F001031360002070472DE9F04F08
:100FB800DFF8B4C1D1F8008083B08E4600254FF029
:100FC800010902E00135102D7ED009FA05F308EA7F
:100FD80003018B42F6D1DEF8044024F0100ABAF17E
:100FE800020F74D06F000322D0F800B0BA40D24389
:100FF80004F0030602EA0B0BBE400AF1FF3A46EA88
:101008000B06BAF1010F066040F28280C668DEF86E
:1010180008303240BB401343E700C360D2D54D4A85
:1010280000230193536C43F480435364536C25F0BD
:10103800030606F1804603F4804306F59C360193C7
:1010480005F00302019BB76892000F23934027EA3B
:101058000303414FB84211D007F58067B8426AD000
:101068003E4FB8426BD03E4FB8426DD03D4FB8426C
:101078000CBF0427072707FA02F21343B360DCF812
:101088000030CA43E60354BF13400B43CCF800308A
:10109800DCF80430A70354BF13400B43CCF80430EA
:1010A800DCF80830E60254BF13400B43CCF8083094
:1010B800DCF80C30A40205F1010554BF13400B43C2
:1010C800102DCCF80C3080D103B0BDE8F08FEF08BC
:1010D80000EB870705F007063A6AB6004FF00F0BDA
:1010E8000BFA06FB22EA0B0ADEF81020B24042EAAD
:1010F8000A023A626F000322D0F800A0BA40D24335
:1011080004F0030602EA0A0ABE4046EA0A06066036
:10111800866806EA020ADEF80C60BE4046EA0A065D
:101128008660D0F804A0C4F300162AEA0303AE4090
:101138001E4346606AE709FA02F213439EE7022754
:1011480007FA02F2134399E7032707FA02F2134357
:1011580094E700BF00380240000002400008024047
:10116800000C024000100240003C014002B9090492
:10117800816170474369594041617047044A516928
:10118800014200D1704708B5506102F009FE08BD60
:10119800003C01402DE9F0410746164698468DB2BD
:1011A8003C6804E061694A0507D4731C18D160697A
:1011B80035EA0000F6D1BDE8F081236843F40073F6
:1011C800236000226FF48060042120236061396469
:1011D80001203A6387F83C2087F83D30BDE8F0816C
:1011E8002EB1FFF74BFEA0EB0800B042D8D9002380
:1011F80020223B6387F83C3087F83D200320DAE75C
:101208002DE9F843814690461E460F0C8CB2D9F85A
:10121800005009E0A96934EA01030CBF012000204D
:1012280080450BD1731C0CD1012FF3D16B6934EAC3
:1012380003030CBF012000208045F3D00020BDE847
:10124800F8832EB1FFF71AFE089BC01AB042DED908
:1012580000232022C9F8303089F83C3089F83D2035
:10126800032089F83E30EAE7F8B506460D461746EA
:10127800306804E04469620507D46B1C12D14369E5
:1012880013F00403F6D00020F8BD6FF48064042145
:101298002022446131640120336386F83C3086F8AB
:1012A8003D20F8BD25B1FFF7E9FDC01BA842DFD9F5
:1012B800336C002243F020032021336486F83C205D
:1012C8003263032086F83D10F8BD00BF70B50546AF
:1012D8000C46164608E05169C90617D45CB1FFF7F9
:1012E800CDFD801BA04206D82A68536913F040033D
:1012F800F1D0002070BD2B6C2022134300212B64F9
:1013080085F83C1085F83D20032070BD6FF0100073
:10131800202150612B6401202B6385F83C3085F82F
:101328003D1070BDF8B506460D461746306804E016
:101338004469620507D46B1C12D1436913F080031A
:10134800F6D00020F8BD6FF48064042120224461A7
:1013580031640120336386F83C3086F83D20F8BDBF
:1013680025B1FFF78BFDC01BA842DFD9336C0022E3
:1013780043F020032021336486F83C2032630320A5
:1013880086F83D10F8BD00BF2DE9F047066884B027
:1013980035680D9F45F48075884691469A463560B4
:1013A8000C9B009700224FF001110446FFF728FF1D
:1013B80088B92268204908F0FE03136120463B469D
:1013C8000C9AFFF7E7FE50B1236C042B03D10120E0
:1013D80004B0BDE8F087032004B0BDE8F0872368B7
:1013E80003905A6903929B6903933A460C99039BAD
:1013F8002046FFF797FF88B9BAF1010F216817D087
:101408004FEA19230B613A460C992046FFF78AFFE9
:1014180020B922685FFA89F31361DDE7236C042B96
:10142800D9D12268136843F4007313600120D3E70D
:101438005FFA89F30B61CFE7020001002DE9F0475D
:101448000468266846F48066266084B026680D9F86
:1014580046F48076884691469A4626600C9B00970B
:1014680000224FF001110546FFF7CAFE98B92B6814
:1014780032495FFA88F808F0FE021A6128463B46AE
:101488000C9AFFF787FE50B12B6C042B03D1012077
:1014980004B0BDE8F087032004B0BDE8F0872B68EE
:1014A80003905A6903929B6903933A460C99039BEC
:1014B8002846FFF737FF40BBBAF1010F2B682DD143
:1014C8005FFA89F21A613A460C992846FFF72AFF13
:1014D800D8B929680B6843F480730B6002460C9BEB
:1014E80000974FF001112846FFF78AFE0028D2D155
:1014F8002868124948F0010202613B460C9A2846C6
:10150800FFF748FE0028BFD1C6E72B6C042BC2D1D9
:101518002A68136843F400731360B8E74FEA192286
:101528001A610C993A462846FFF7FCFE0028ECD1D0
:101538002A685FFA89F31361C5E700BF020001005A
:1015480000285CD090F83D3070B503F0FF020446E7
:10155800002B4FD02268324D242384F83D30136885
:1015680023F00103136000F07FFCD4E900312D4A19
:10157800A2FB0062920CA9425A6025D84900B0FB30
:10158800F1F0C0F30B01013203291A6298BF04205D
:10159800D4E90725D4E90361D86142EA0500D4E912
:1015A800052531432A4318609960DA6019680022DA
:1015B80041F00101202519601046226484F83D504D
:1015C800226384F83E2070BD4FF49675164E05FBD5
:1015D80002F2A6FB02529209A56801321A6285B985
:1015E80001EB4101B0FBF1F0C0F30B02AAB140F4EA
:1015F8000040CDE780F83C2003F06CFEAAE701200C
:10160800704701EB810101EB8101B0FBF1F0C0F300
:101618000B0212B140F44040BAE70120B8E700BF1E
:10162800A086010083DE1B43D34D62102DE9F047ED
:10163800044682B098460E461746BDF82C90FFF730
:101648001DFC94F83D30202B03D0022002B0BDE8E9
:10165800F08705460090192301223F492046FFF7ED
:10166800CFFD0028F1D194F83C30012BEDD0236850
:101678001A680121D00784F83C1002D41A680A437A
:101688001A601A68354922F400621A604FF0000A9D
:101698002122402384F83D2084F83E30C4F840A03D
:1016A800A4F82A90E162608D0A9B636231460C9E21
:1016B80001950096434620853A462046FFF764FE8A
:1016C80048BB238D0C992A462046ABB1FFF72AFE6A
:1016D800C0B9616A2068268D4B1C63620B78036170
:1016E800628D013A92B262854269731E9BB25207BB
:1016F8002385E7D58A1CBBB92A460C992046FFF7F3
:10170800B3FDE0B1236C042B0CD12268136843F4B9
:101718000073136004E0236C84F83CA0042B01D10F
:10172800012093E7032091E762624B780361628DA1
:10173800B31E013A9BB292B223856285C2E7226842
:101748001368202143F40073136084F83D1084F873
:101758003C0084F83E0079E7020010000000FFFF1B
:101768002DE9F047044686B098460E461746BDF860
:101778003C90FFF783FB94F83D30202B04D00226E1
:10178800304606B0BDE8F0870546009019230122CF
:101798007D492046FFF734FD0028F0D194F83C300D
:1017A800012BECD023681A680121D00784F83C107B
:1017B80002D41A680A431A601A68744922F400624B
:1017C8001A604FF0000A2222402384F83D2084F852
:1017D8003E30C4F840A0A4F82A90E162608D0E9BC8
:1017E80063623146109E00960195434620853A462D
:1017F8002046FFF723FE0646A8B9238D2268F3B9D1
:1018080002905369029393690293029B136843F40D
:10181800007313600023202284F83D2084F83C30B4
:1018280084F83E30ACE7236C84F83CA0042B04D148
:101838000126A5E7236C202BFAD10326A0E7012B6C
:1018480078D0022B00F0918005905169059192693A
:101858000592059A4E4F032B4DD8012B79D0022BB8
:101868000095109B4FF00002394620461CD0FFF728
:10187800C7FC0028E1D12368D4F824C0196821F4F2
:10188800806119601B690CF1010262628CF80030FA
:10189800638D218D0095013B9BB201396385109BB7
:1018A8002185024639462046FFF7AAFC0028C4D104
:1018B8002368616A1A6842F400721A601B694A1C3C
:1018C80062620B70638D218D606A2268013B9BB256
:1018D800638512694B1E411C238561620270238D4A
:1018E800628D013B013A9BB292B223856285002B3F
:1018F80090D0032BB1D92A4610992046FFF7E6FC71
:10190800002897D1636A2268591C126961621A70AB
:10191800628D2168238D013A92B262854A69013B42
:101928009BB252072385E2D5636A0A69591C616232
:101938001A70D4E7116821F480611160039051692D
:101948000391916903910399116841F40071116041
:1019580080E72A4610992046FFF7B8FC00287FF454
:1019680069AF2268636A1269E0E7116821F480614F
:101978001160116841F4006111600490516904918B
:1019880092690492049A65E7020010000000FFFFC4
:1019980004000100002800F02081F0B50368DD078D
:1019A80083B004462FD5A8498A6802F00C02042A9D
:1019B80000F0AE808A6802F00C02082A00F0A480C9
:1019C8006368B3F5803F00F0AD80B3F5A02F00F059
:1019D8002C819D4D2A6822F480322A602A6822F4DC
:1019E80080222A60002B40F0A280FFF747FA0646C3
:1019F80005E0FFF743FA801B642800F2E2802B68B9
:101A08009B03F6D423689F0739D41A0714D5636952
:101A1800002B69D08D4B8C4D01221A60FFF72EFAEE
:101A2800064605E0FFF72AFA801B022800F2C98063
:101A38006B6F9F07F6D52368590700F18680A26966
:101A4800D2B1814DA96801F00C01082949D0022AB8
:101A58007F4A4FF00001116000F0F180FFF70EFAA5
:101A68002C46054605E0FFF709FA401B022800F25C
:101A7800A88023689B01F6D4002003B0F0BD724A09
:101A8800916811F00C0F25D0916801F00C0108291C
:101A98001DD0E368002B00F0A2806E4B6A4D012236
:101AA8001A60FFF7EBF9064605E0FFF7E7F9801B38
:101AB800022800F286802B689807F6D52B682269E1
:101AC80023F0F80343EAC2032B6023689DE75268BA
:101AD8005602DED45C4A1268950775D5E268012A79
:101AE80072D0012003B0F0BD584A574D1360FFF77C
:101AF800C5F9064604E0FFF7C1F9801B022860D843
:101B08006B6F9807F7D496E74A6850027FF558AF8D
:101B18004D4A126891037FF576AF6268002A7FF418
:101B280072AFDEE7484A136843F480331360FFF767
:101B3800A5F9454D064604E0FFF7A0F9801B642887
:101B48003FD82B689A03F7D55CE73F4B424D0022FC
:101B580001921A6C42F080521A641B6C03F0805395
:101B68000193019B2B6843F480732B60FFF786F980
:101B7800064604E0FFF782F9801B022821D82B686B
:101B8800DA05F7D5A368012B3AD0052B00F08E8033
:101B98002D4D2A6F22F001022A672A6F22F00402D3
:101BA8002A67002B31D1FFF769F941F288360746D9
:101BB8002B6F98077FF543AFFFF760F9C01BB04262
:101BC800F6D9032003B0F0BD1F4920690A6822F046
:101BD800F80242EAC0020A6017E7012070471D4A6E
:101BE800194D1360FFF74AF9064604E0FFF746F976
:101BF800801B0228E5D82B689907F7D4236804E7E7
:101C0800114A136F43F001031367FFF737F90E4DBD
:101C1800074641F288362B6F9B073FF510AFFFF759
:101C28002DF9C01BB042F6D9CBE7074B1A6842F42E
:101C380080221A601A6842F480321A6077E7FFF748
:101C48001DF906460FE000BF00380240800E4742EB
:101C5800600047420000474200700040FFF70EF95D
:101C6800801B0228ADD82B689901F7D4D4E9073630
:101C7800D4E90902E16A124C334343EA801352085B
:101C880043EA0163013A0F4943EA024301226B60C8
:101C98000A60FFF7F3F8054604E0FFF7EFF8401B8A
:101CA80002288ED823689A01F7D5E5E6044B1A6F07
:101CB80042F004021A671A6F42F001021A67A4E799
:101CC8000038024060004742174908B58B6803F0A6
:101CD8000C03042B1BD0082B17D14A684B6813F44C
:101CE800800302F03F0214D149681048C1F38811FB
:101CF800A1FB0001FEF70AFF0B4B5B68C3F301432E
:101D080001335B00B0FBF3F008BD084808BD084884
:101D180008BD4B680648C3F38813A3FB00010023E2
:101D2800FEF7F4FEE8E700BF003802400024F400A4
:101D380040787D0160B1484A136803F00F038B4275
:101D480008D2CBB21370136803F00F038B4201D093
:101D58000120704703682DE9F0419D0714D55C0701
:101D680004D53E4CA26842F4E052A2601A0704D59A
:101D78003A4CA26842F46042A260384C8568A26876
:101D880022F0F0022A43A260DF0704460D4622D55E
:101D98004268012A56D0931E012B304B1B6858D934
:101DA800990725D52D4EB36823F003031343B36079
:101DB800FFF764F841F28837804605E0FFF75EF8E0
:101DC800A0EB0800B84242D8B368626803F00C037D
:101DD800B3EB820FF2D1204A136803F00F03AB4232
:101DE80009D9EBB21370136803F00F03AB4202D0AA
:101DF8000120BDE8F08123685A0706D51749E06835
:101E08008A6822F4E05202438A601B0711D4FFF764
:101E18005BFF124B12499B68124AC3F30313CB5C56
:101E280020FA03F300201360FEF7F0FF0020BDE85E
:101E3800F0810A4A2169936823F4604343EAC103A5
:101E48009360E4E7054B1B689E03ABD4D0E70320FF
:101E5800EDE79801A6D4CBE7003C024000380240E9
:101E6800B098000858000020044B054A9B680549B3
:101E7800C3F382230868D35CD84070470038024017
:101E8800C098000858000020044B054A9B68054983
:101E9800C3F342330868D35CD84070470038024027
:101EA800C098000858000020F0B4046AD1F808C0AF
:101EB8000E68124D24F001040462036A47688269BF
:101EC80023F0020322F07302A84243EA0C0342EA19
:101ED80006020BD1D1E90545CE6823F0080327F4A3
:101EE800407733432C4323F0040327434968476072
:101EF8008261F0BC41630362704700BF000001408B
:101F0800F0B4046AD1F808C00E68134D24F4807444
:101F18000462036A4768C26923F4007322F07302FB
:101F2800A84243EA0C2342EA06020DD1D1E905454D
:101F3800CE6823F4006327F4405743EA06232C4372
:101F480023F4806347EA041749684760C261F0BC1C
:101F5800C1630362704700BF00000140F0B4046A27
:101F68008F680E680E4D24F480540462036A446836
:101F7800C26923F4005322F4E642A84243EA073335
:101F880042EA062204D14D6924F4804444EA8514C7
:101F980049684460C261F0BC01640362704700BFD5
:101FA800000001400368DA6842F00102DA601A684A
:101FB80042F001021A600020704700BF0368012246
:101FC800186A02FA01F120EA010010B418621A6ACC
:101FD800084C1143A342196203D15A6C42F40042DF
:101FE8005A641A685DF8044B42F0010200201A6036
:101FF800704700BF00000140FFF7E0BF704700BF17
:10200800704700BF704700BF704700BF03681A6978
:10201800910710B5044602D5DA6892075FD41A69A9
:10202800500702D5DA68510746D41A69120702D553
:10203800DA6810072ED41A69D20602D5DA68D006F3
:1020480018D41A69D10702D5DA68D2075DD41A699B
:10205800100602D5DA6811065FD41A69520602D54D
:10206800DA68500661D41A69910602D5DA689206D0
:1020780043D410BD6FF010021A61DB69082213F413
:10208800407F2276204664D0FFF7BAFF00222368FB
:102098002276D6E76FF008021A61DB6904229907F5
:1020A8002276204652D1FFF7A9FF2046FFF7AAFF64
:1020B800002223682276BEE76FF004021A619B694A
:1020C800022213F4407F227620463CD1FFF796FF88
:1020D8002046FFF797FF002223682276A5E76FF0D6
:1020E80002021A619B6901229B07027625D0FFF73D
:1020F80087FF00222368227691E76FF020022046AE
:102108001A61BDE8104000F05DB96FF001021A6174
:10211800204603F049F8236899E76FF080021A61B6
:10212800204600F051F9236897E76FF040021A61E2
:102138002046FFF769FF236895E7FFF75FFF204612
:10214800FFF760FFD5E7FFF75BFFC4E7FFF758FF2E
:10215800AEE7FFF753FF2046FFF754FF96E700BFAF
:1021680070B4214C03688A680D68A0422AD0B0F187
:10217800804F18D0A4F57C44A04214D004F58064A4
:10218800A04210D004F58064A0420CD004F59A3423
:10219800A0420CD004F58064A04208D004F5806405
:1021A800A04208D103E04C6823F070032343C968B8
:1021B80023F440730B4303600123C26285624361C9
:1021C80070BC70474E68CC6823F07003334323F427
:1021D800407323430360C26285620B690363012372
:1021E800436170BC704700BF00000140B8B190F86F
:1021F800393010B503F0FF0204465BB1022384F8BE
:1022080039302068211DFFF7ABFF012384F83930EE
:10221800002010BD80F8382003F0E0F8EEE7012038
:10222800704700BFF0B4046AD1F808C00E68134DB7
:1022380024F010040462036A4768826923F02003CB
:1022480022F4E642A84243EA0C1342EA06220DD1E0
:10225800D1E90545CE6823F0800327F4406743EAB7
:1022680006132C4323F0400347EA84074968476074
:102278008261F0BC81630362704700BF00000140C7
:1022880038B590F83830012B74D00D46022301215F
:10229800044680F8381080F839300C2A19D8DFE85D
:1022A80002F00718181838181818511818181F00AD
:1022B80029460068FFF7F8FD23682869996941F005
:1022C80008019961996921F0040199619A690243A9
:1022D8009A610123002084F8393084F8380038BD29
:1022E80029460068FFF73AFE23682869D96941F44E
:1022F8000061D961D96921F48061D961DA6942EA5A
:102308000022DA610020012384F8393084F838008B
:10231800E5E729460068FFF785FF2368286999697A
:1023280041F400619961996921F4806199619A6920
:1023380042EA00229A610020012384F8393084F8A7
:102348003800CCE729460068FFF7DAFD23682869DA
:10235800D96941F00801D961D96921F00401D9612D
:10236800DA690243DA610020012384F8393084F8FD
:102378003800B4E7022038BD90F83830012B1ED061
:1023880002460220136870B482F839005C6824F0B1
:102398007004D1E900565C60586828435860986812
:1023A80020F08000986099680024012531439960E5
:1023B800204682F8395082F8384070BC70470220B5
:1023C800704700BF704700BF704700BF02681169BF
:1023D8002DE9F843C568836821F440510446294330
:1023E80000691161D16865690343E06921F4164108
:1023F8002B4321F00C0103430B43D3605369A169BC
:1024080023F440730B43B0F5004F53619B4B00F02E
:102418009A809A4259D003F580639A4255D0FFF7C3
:1024280023FD974F636800EB800000EB80009B0062
:10243800B0FBF3F3A7FB03235B091D01FFF714FDB2
:10244800666800EB800000EB8000B600B0FBF6F693
:10245800FFF70AFD636800EB800000EB80009B003B
:10246800B0FBF3F3A7FB03235B094FF0640909FBF7
:1024780013631B013233A7FB03235B0903F0F00648
:10248800FFF7F2FC626800EB800000EB800093002D
:10249800B0FBF3F8FFF7E8FCD4E9002300EB800079
:1024A8009B0000EB8000B0FBF3F0A7FB0030400975
:1024B80009FB10831B013233A7FB0313C3F3431338
:1024C80033432B449360BDE8F883FFF7DDFC6C4F82
:1024D800636800EB800000EB80009B00B0FBF3F327
:1024E800A7FB03235B091D01FFF7CEFC666800EB21
:1024F800800000EB8000B600B0FBF6F6FFF7C4FCE6
:10250800636800EB800000EB80009B00B0FBF3F3F6
:10251800A7FB03234FF064095B0909FB13631B0145
:102528003233A7FB03235B0903F0F006FFF7ACFC8B
:10253800626800EB8000930000EB8000B0FBF3F8CA
:10254800FFF7A2FCA8E79A4259D003F580639A42A4
:1025580055D0FFF789FC4A4F636800EB800000EB19
:1025680080005B00B0FBF3F3A7FB03235B091E01AC
:10257800FFF77AFC656800EB800000EB80006D00D7
:10258800B0FBF5F5FFF770FC636800EB800000EB2B
:1025980080005B00B0FBF3F3A7FB03235B094FF05C
:1025A800640909FB1353DB003233A7FB03231B0920
:1025B80003F4F875FFF758FC626800EB800000EB45
:1025C80080005300B0FBF3F8FFF74EFCD4E900237A
:1025D80000EB800000EB80005B00B0FBF3F3A7FB8F
:1025E80003135B0909FB1383DB003233A7FB0313D7
:1025F800C3F3421333442B449360BDE8F883FFF7D9
:1026080043FC1F4F636800EB800000EB80005B0019
:10261800B0FBF3F3A7FB03235B091E01FFF734FCB0
:10262800656800EB800000EB80006D00B0FBF5F5FD
:10263800FFF72AFC636800EB800000EB80005B007A
:10264800B0FBF3F3A7FB03234FF064095B0909FB15
:102658001353DB003233A7FB03231B0903F4F8757C
:10266800FFF712FC626800EB8000530000EB80006B
:10267800B0FBF3F8FFF708FCA8E700BF0010014023
:102688001F85EB5160B338B590F83930044603F034
:10269800FF0203B32268242384F83930D36823F473
:1026A8000053D3602046FFF791FE23681A6922F48D
:1026B80090421A615A6922F02A025A61DA680025A2
:1026C800202142F40052DA602846E56384F8391084
:1026D80084F83A1038BD80F8382002F0F3FED9E7C4
:1026E8000120704790F83930202B18D1C9B1C2B1F8
:1026F80090F83830012B12D030B400230568C2841A
:102708002124C36380F83940EC68016244F08004F6
:10271800828480F838301846EC6030BC704702205C
:1027280070470120704700BF90F83A30202B1CD129
:10273800E9B1E2B190F83830012B16D030B400235B
:102748000468C2852225C36380F83A50656982858A
:1027580045F00105816280F838306561E26842F42D
:1027680090721846E26030BC704702207047012022
:10277800704700BF10B584680169836A0268B4F5C0
:10278800805F1CD05C1C52688462A9B91A70C38D22
:10279800013B9BB2C3856BB90268D16821F4907183
:1027A800D1605169202421F00101516180F83A403B
:1027B80002F008FC002010BD02F07F02E6E7526834
:1027C80029B9C2F3080223F8022B8362DFE7D2B2E9
:1027D80023F8012B8362DAE703681A6870B51607D5
:1027E800DD68596904464AD011F001011E464FD0F0
:1027F800D00705D5EB0503D5E36B43F00103E3638D
:10280800500702F0020375D561B1E16B41F0020196
:10281800E16302F00801002B71D119B1E36B43F0B9
:102828000803E363E36B002B31D0900601D5A906BA
:1028380071D47569E26B120702D415F0400577D0A0
:10284800F36823F49073F3607369202223F0010383
:10285800736184F83A2073695B0658D57369606BB5
:1028680023F040037361002851D03A4B0365FEF70B
:102878008BFB60B1606BBDE87040036D1847910633
:1028880009D5AE0607D590F83A30222B4CD070BD4A
:1028980015F4907FACD116060ED45106F7D56A060A
:1028A800F5D5DA68202122F04002DA60204684F863
:1028B800391002F04BFC70BD2806EED594F839208B
:1028C800212AE4D1A168226AB1F5805F35D0511C74
:1028D800216212785A60E28C013A92B2E284002AAC
:1028E800D5D1DA6822F08002DA60DA6842F0400274
:1028F800DA6070BD43B1002994D002F00801E36B9F
:1029080043F00403E36388E713078BD585E7204684
:1029180002F06EFB70BD94F83A30222B89D1204624
:10292800FFF728FF266884E7BDE87040FFF722BF5D
:10293800204602F05DFBE56370BD11882069C1F394
:102948000801596010B902322262C4E701322262DA
:10295800C1E700BF6129000808B5836B0022DA854A
:102968001846DA8402F044FB08BD00BF704700BF78
:102978000368DA6822F0C00210B5DA605A6912F00A
:102988008002044610D05A69016B22F080025A6115
:1029980091B10D4B0B650846FEF7F6FA10B1206BA6
:1029A800036D9847002010BD2023C28480F8393079
:1029B800FFF7DCFF002010BD2023C18480F83930E8
:1029C800FFF7D4FF002010BDD529000808B5836B98
:1029D80000212022D984184683F83920FFF7C6FF42
:1029E80008BD00BF704700BF0368DA6822F4907220
:1029F80010B5DA605A6922F001025A615A6912F078
:102A08004002044610D05A69416B22F040025A61D4
:102A180091B10D4B0B650846FEF7B6FA10B1606B25
:102A2800036D9847002010BD2023C28580F83A30F6
:102A3800FFF7D8FF002010BD2023C18580F83A3069
:102A4800FFF7D0FF002010BD552A000808B5836B9A
:102A580000212022D985184683F83A20FFF7C2FFC3
:102A680008BD00BF38B5044632200D46FEF70CFA03
:102A7800204603F0ADF8204603F01CFC20460B4A24
:102A88000B4903F06BF90B4A0B49204603F0EEFCA7
:102A98000121204602F0B6FE204603F097FA2946A7
:102AA8002046BDE8384002F0A9BE00BF9C040020C3
:102AB8009D040020940400209804002030B5274B82
:102AC800A3FB0023DB08C3EB431285B0C3EB8201F1
:102AD80000F1300202EB41023033412104468DF807
:102AE80001308DF802208DF800100DF102036846C0
:102AF8000DF10E01202203F8012F8B42FBD19DF826
:102B080000200A238DF80F3022B39A42144D4FF05B
:102B180000030CD0294601E00A2A06D001F8012B4F
:102B280010F8012F0133002AF6D10E2B07DC5A1EAC
:102B38002A44202101330F2B02F8011FFAD10A235E
:102B4800102207490748EB73FFF7CCFD064B1C70B2
:102B580005B030BD1346024DE9E700BFCDCCCCCC63
:102B68000000002014060020A003002010B41A4B17
:102B78001A49A3FB0023DB08C3EB43124C78C3EBD1
:102B8800820200EB42009C42C0B219D05A1E062AAB
:102B980009D8DFE802F0101C10040404040006241D
:102BA80001224C600A7200224B72CA704B70887006
:102BB8005DF8044B7047042401224C600A72F2E766
:102BC8008A788242E2D1CA78002AEFD0DEE70B2465
:102BD80001224C600A72E6E7CDCCCCCCA0030020E1
:102BE800044B1A7C772A03D1A021622259741A74E3
:102BF8006220704700000020C1F16403834270B571
:102C08000C460546164615DB08189042B8BF104614
:102C180002F0FAFAA4F16403AB4212DC601BB04282
:102C280003DBBDE8704002F0CDBA3046BDE8704025
:102C380002F0C8BA642002F0E7FAA4F16403AB42D8
:102C4800ECDD6420BDE8704002F0BCBA0000000072
:102C58002DE9F04F83B002F0CFFC494B494C5B782B
:102C68006061462B69DCD4E906520A3278DBC3F18D
:102C7800A0031D442846FDF7FDFBDFF80C81D4E9CD
:102C88000823CDE90001FDF7A9FAD8E906678246CD
:102C98008B4632463B46C4E908ABFDF7E5FE18B162
:102CA800C4E90867B246BB46D8E9086752465B469E
:102CB80030463946FDF7D8FE18B1C4E90867B24670
:102CC800BB46A06A281AFDF7D5FB06460F4626A381
:102CD800D3E90023DDE90001C4E90C67FDF734FC02
:102CE80023A3D3E900238046894650465946FDF779
:102CF8002BFC02460B4640464946FDF76FFA1EA3D9
:102D0800D3E900238046894630463946FDF71CFC46
:102D180002460B4640464946FDF760FAFDF7AEFE0F
:102D28002828E061A56211DD2820E0611E223221F9
:102D380003B0BDE8F04FFFF75FBFF92B0DDDD4E915
:102D480006520A2A93DD0A35A56190E710F1280F8B
:102D5800BCBF6FF02700E061E8E70025A56186E7C2
:102D68000235A56183E700BF7B14AE47E17AB43F23
:102D78006D1087E25E3F5A3D0000009EADFD2F4278
:102D880054060020A0030020000000202DE9F04F89
:102D980083B002F031FC454B454C5B786061462BB3
:102DA8006DDCD4E906210A317CDBC3F1A0031344AE
:102DB80018460193FDF75EFB3E4DD4E90823804693
:102DC8008946FDF70BFAD5E9066782468B463246F7
:102DD8003B46C4E908ABFDF747FE18B1C4E90867EC
:102DE800B246BB46D5E9086752465B463046394687
:102DF800FDF73AFE18B1C4E90867B246BB46019B25
:102E0800A06A181AFDF736FB06460F46D5E90A23CD
:102E180040464946C4E90C67FDF796FBD5E90C2303
:102E28008046894650465946FDF78EFB02460B46BA
:102E380040464946FDF7D2F9D5E90E238046894632
:102E480030463946FDF780FB02460B464046494668
:102E5800FDF7C4F9184B0022FDF776FBFDF70EFECF
:102E6800019BE0612828A36212DD2820E0616FF051
:102E78006302002103B0BDE8F04FFFF7BDBEF92B98
:102E88000DDDD4E906210A298FDD0A32A2618CE71B
:102E980010F1280FBCBF6FF02700E061E7E70022C0
:102EA800A26182E70232A2617FE700BF54060020D8
:102EB800A0030020000000200000E03FF8B5C1F1A9
:102EC80064068642A1F1640419DA844251DC6FF089
:102ED8006304A242A1EB0001B8BF22469142B8BFE9
:102EE800114664290C464FF06405A8BF64242046A7
:102EF80002F068F92846BDE8F84002F085B90D18D7
:102F08009542B8BF1546844231DC6FF063049442A1
:102F1800B8BF1446091A8C42B8BF0C46642CA8BF27
:102F28006424093AAA4218DC632D16DC002B2ADD3A
:102F38001846FDF79FFA0022164BFDF705FB0646DB
:102F480028460F46FDF796FA02460B4630463946A4
:102F5800FDF744F9FDF792FD0546642DC8BF6425C9
:102F6800C5DC6FF063039D42B8BF1D46BFE764240C
:102F7800D7E764242046254602F024F92846BDE810
:102F8800F84002F041B91D446FF063039D42B8BF99
:102F98001D46ACE7000008402DE9F04F87B002F06D
:102FA8002BFBA54BA54C93F80190B9F14B0F80462C
:102FB80000F3D080E3690A33C0F207816369A8EBA4
:102FC8000303B3F57A7FC9F1A00A00F2B180A669BC
:102FD800A56A3046FDF74EFACDE90001AAEB0500D7
:102FE800FDF748FA564482A3D3E900230396FDF778
:102FF800ABFAD4E90867CDE90401A36B0293C4F8DE
:1030080014805046FDF736FA32463B46FDF7E6F89F
:10301800DDE90023FDF7E2F8DFF824B202460B46AB
:10302800DBE9066743EC172B5544CDE9002305EB94
:10303800D57584ED087B32463B466D10FDF714FDCF
:1030480058B1E36BC4E90867A8EB0303CDE900674F
:10305800B3F5FA7F88BFC4F83C80DBE90867DDE98F
:10306800002330463946FDF7FFFC58B1E36BC4E94D
:103078000867A8EB0303CDE90067B3F5FA7F88BFBB
:10308800C4F83C80029BE81A00F10803102B7DD994
:10309800FDF7F0F906460F46C4E90C670398FDF7FB
:1030A800E9F955A3D3E90023FDF74EFA54A3D3E970
:1030B800002380468946DDE90001FDF745FA02460E
:1030C8000B4640464946FDF789F8DDE90423FDF73C
:1030D80085F8FDF7D3FC00228046002330463946A8
:1030E800FDF7C2FCC4F81C80002872D046A3D3E9BF
:1030F800002330463946FDF727FA3B463246FDF7AE
:1031080023FAFDF7BBFCB8F1280F03462064C4F886
:1031180028A0A56333DD2822E261322B27DD322087
:10312800E0611E22322107B0BDE8F04FFFF7C6BEAE
:103138009FED377B00238DED047B8DED007B57ECF5
:10314800176BC4F828A0C4F838A0A361CDE902AA77
:10315800554654E7B9F1F40F34DDE3690A2B7FF7DC
:103168002DAFA369A9F1EB029B1AA36126E713F11E
:10317800320FB6BF6FF03100E069E061D1E718F1B6
:10318800280FBCBF6FF02702E261C6E7B9F1B40FA0
:10319800D4E90C0109DD20A3D3E90023FDF7D4F914
:1031A80006460F46C4E90C6778E7B9F18B0F14DCC3
:1031B8001BA3D3E90023FDF7C7F906460F46C4E968
:1031C8000C676BE70023A361F8E6A3690533A361E5
:1031D800F4E615A3D3E900238BE715A3D3E900236D
:1031E800FDF7B2F906460F46C4E90C6756E700BF7B
:1031F8000000009EADFD2F427B14AE47E17AB43F3C
:103208005EF959F570D1603D7B14AE47E17A943F81
:1032180000000000000000002DB29DEFA7C6EF3FA0
:10322800560E2DB29DEFEF3F7B14AE47E17A94BF67
:103238009A9999999999E93F54060020A00300208A
:10324800000000202DE9F843C1F1640484421D46C2
:10325800089FA1F164031ADA984244DB0C1A9442DD
:10326800B8BF14466426AE4239DC6B429E42B8BFF2
:103278001E46A54203DB6D42A542B8BF2546284637
:1032880001F0A0FF3046BDE8F84301F0BDBF0E18BD
:103298009642B8BF1646984223DB0C1A9442B8BF30
:1032A8001446093AB242DEDC632EDCDC002F1DDD59
:1032B8003846FDF7DFF800220D4BFDF745F980464B
:1032C80030468946FDF7D6F802460B464046494641
:1032D800FCF784FFFDF7D2FB0646AE42C5DD2E465D
:1032E800C7E76424DDE764242646BCE73E44BAE722
:1032F80000000840000000002DE9F04F89B002F0FE
:103308007BF9BD4BDA780A2A1AD0BC4A92F84430C5
:103318000133DBB2632B04D882F8443009B0BDE82E
:10332800F08F92F84530002143F00403012082F821
:10333800453082F844105160107209B0BDE8F08F32
:1033480093F801B0BBF14B0F804600F3BE80AB4C45
:10335800E3691E3302DAA3690133A3616369A8EB49
:103368000303B3F57A7FCBF1A00A00F2BA80A6690D
:10337800A56A3046FDF77EF8CDE90201AAEB050003
:10338800FDF778F8564488A3D3E900230596FDF79E
:10339800DBF8D4E90867CDE90601A36B0493C4F808
:1033A80014805046FDF766F832463B46FCF716FF98
:1033B800DDE90223FCF712FF914BD3E90667554478
:1033C80005EBD575C4E9080132463B466D10CDE9D9
:1033D8000201FDF749FB58B1E36BC4E90867A8EBA4
:1033E8000303CDE90267B3F5FA7F88BFC4F83C80D0
:1033F8006FA7D7E90067DDE9020132463B46FDF7D2
:1034080015FB002840F09D80DDE902016AA3D3E99D
:103418000023FDF799F880468946049BE81A00F1D5
:103428000803102B7ED9FDF725F806460F46C4E998
:103438000C67059BA3F10A00FDF71CF860A3D3E90C
:103448000023FDF781F842464B46FCF7C7FEDDE94D
:103458000623FCF7C3FE00226A4BFCF7BDFEFDF70E
:103468000DFB00228046002330463946FDF7FCFA62
:10347800C4F81C80002873D053A3D3E90023304636
:103488003946FDF761F832463B46FDF75DF8002204
:103498005D4BFCF7A3FEFDF7F1FA02462064B8F194
:1034A8001E0FC4F828A0A56335DD1E23E361322A68
:1034B80029DD3220E061009246236FF04F0232216D
:1034C800FFF7C0FE09B0BDE8F08FBBF1F40F4B4C1D
:1034D80067DDE3690933FFF641AFA369053BA361E3
:1034E8003CE79FED3B7B00238DED067B8DED027B5A
:1034F80057EC176BC4F828A0C4F838A0A361CDE92D
:1035080004AA55464BE712F1320FB6BF6FF03100EF
:10351800E069E061CFE718F1460FBCBF6FF04503E3
:10352800E361C4E7BBF1B40FD4E90C012CDD2AA395
:10353800D3E90023FDF708F806460F46C4E90C67EF
:1035480077E7E36BA8EB0303B3F5FA7F88BFC4F80A
:103558003C80C4E908670FF28809D9E900895CE76B
:1035680021A3D3E9002330463946FCF7EDFF324664
:103578003B46FCF7E9FF0022244BFCF72DFEFDF744
:103588007DFA024620648AE7BBF18B0F40DC18A362
:10359800D3E90023FCF7D8FF06460F46C4E90C67B9
:1035A80047E70023A361D9E60000009EADFD2F4246
:1035B800000000000088C3C0CEE15AED612F143F1F
:1035C8002DB29DEFA7C6BB3FA796ADF545429B3FE1
:1035D80000000000000000002DB29DEFA7C6EF3FDD
:1035E800A4703D0AD7A3E8BFA796ADF545429BBF97
:1035F800560E2DB29DEFEF3F54060020A003002089
:103608000000002000003440000024400000144066
:1036180005A3D3E90023FCF797FF06460F46C4E944
:103628000C6706E7AFF30080CDCCCCCCCCCCEC3F1C
:103638002DE9F04F89B001F0DFFFA74BA74C93F8B5
:103648000190B9F14B0F804600F3D780E3690A3344
:10365800C0F20C816369A8EB0303B3F57A7FC9F163
:10366800A00A00F2B880A669A56A3046FCF702FFF6
:10367800CDE90201AAEB0500FCF7FCFE564484A341
:10368800D3E900230596FCF75FFFD4E90867CDE985
:103698000601A36B0493C4F814805046FCF7EAFEB5
:1036A80032463B46FCF79AFDDDE90223FCF796FD1E
:1036B800DFF830B202460B46DBE9066743EC172B0E
:1036C8005544CDE9022305EBD57584ED087B3246D8
:1036D8003B466D10FDF7C8F958B1E36BC4E90867BC
:1036E800A8EB0303CDE90267B3F5FA7F88BFC4F8F6
:1036F8003C80DBE90867DDE9022330463946FDF7FF
:10370800B3F958B1E36BC4E90867A8EB0303CDE943
:103718000267B3F5FA7F88BFC4F83C80049BE81AB7
:1037280000F10803102B40F28280FCF7A3FE064646
:103738000F46C4E90C670598FCF79CFE56A3D3E92D
:103748000023FCF701FF56A3D3E9002380468946EE
:10375800DDE90201FCF7F8FE02460B464046494601
:10376800FCF73CFDDDE90623FCF738FD00225C4B45
:10377800FCF734FDFDF782F900228046002330462D
:103788003946FDF771F9C4F81C80002872D046A3A9
:10379800D3E9002330463946FCF7D6FE32463B468D
:1037A800FCF7D2FEFDF76AF9B8F1280F024620644B
:1037B800C4F828A0A56333DD2823E361322A27DD76
:1037C8003220E0610092502314222821FFF73AFDAD
:1037D80009B0BDE8F08F9FED367B00238DED067BA9
:1037E8008DED027B57EC176BC4F828A0C4F838A0FD
:1037F800A361CDE904AA55464DE7B9F1F40F32DDCE
:10380800E3690A2B7FF726AFA369053BA36121E78C
:1038180012F1320FB6BF6FF03100E069E061D1E715
:1038280018F1140FBCBF6FF01303E361C6E7B9F1D9
:10383800B40FD4E90C0109DD1FA3D3E90023FCF779
:1038480083FE06460F46C4E90C6774E7B9F18B0F8F
:1038580014DC1BA3D3E90023FCF776FE06460F46CB
:10386800C4E90C6767E70023A361F3E6A36905339E
:10387800A361EFE614A3D3E900238BE714A3D3E9EC
:103888000023FCF761FE06460F46C4E90C6752E7C1
:10389800000020183B4A3542B77F65A54929C83F33
:1038A8004717036B439C5E3DA796ADF545429B3F8A
:1038B80000000000000000002DB29DEFA7C6EF3FFA
:1038C800560E2DB29DEFEF3FA796ADF545429BBF33
:1038D8009A9999999999E93F54060020A0030020E4
:1038E80000002440000000202DE9F04F89B001F0CD
:1038F80083FEA34B93F80190B9F14B0F804600F378
:10390800DA80A04CE3690A33C0F214816369A8EB3A
:103918000303B3F57A7FC9F1A00500F2BC80A6695C
:10392800D4F828A03046FCF7A5FDCDE90201A5EBA7
:103938000A00FCF79FFD05EB060BCDE90601D4E96B
:103948000867A36B059305EB0A0303EBD3735B10BE
:10395800C4F8148028460493FCF78CFD32463B4695
:10396800FCF73CFCDDE90223FCF738FCDFF818A281
:1039780002460B46DAE9066743EC172BCDE902232A
:1039880084ED087B32463B46FDF76EF858B1E36B91
:10399800C4E90867A8EB0303CDE90267B3F5FA7F2A
:1039A80088BFC4F83C80DAE90867DDE902233046BD
:1039B8003946FDF759F858B1E36BC4E90867A8EB35
:1039C8000303CDE90267B3F5FA7F88BFC4F83C80EA
:1039D800DDE90432981A00F10803102B40F28680C2
:1039E800FCF748FD06460F46C4E90C675846FCF745
:1039F80041FDDAE90A23FCF7A7FDDAE90C23804642
:103A08008946DDE90201FCF79FFD02460B46404668
:103A18004946FCF7E3FBDAE90E2380468946DDE9EF
:103A28000601FCF791FD02460B4640464946FCF765
:103A3800D5FBFDF723F8002283460023304639469C
:103A4800DAE91089FDF710F8002877D0C4F81CB01F
:103A580042464B4630463946FCF776FD32463B46F1
:103A6800FCF772FDFDF70AF8049B2064BBF1500FC8
:103A78000246A562A36332DD5023E361322A26DDC4
:103A88003220E0610092322300222821FFF7DAFB7E
:103A980009B0BDE8F08F9FED327B00238DED067BEA
:103AA8008DED027B57EC176BA562A563A361AB464E
:103AB8000595AA4647E7B9F1F40F33DD314CE369C0
:103AC8000A2B7FF723AFA369053BA3611EE712F119
:103AD800320FB6BF6FF03100E069E061D2E71BF149
:103AE800500FBCBF6FF04F03E361C7E7B9F1B40FE4
:103AF800D4E90C0109DD1CA3D3E90023FCF724FD5C
:103B080006460F46C4E90C6770E7B9F18B0F1DDC58
:103B180017A3D3E90023FCF717FD06460F46C4E9AF
:103B28000C6763E7174C00230022C4E9082300232D
:103B3800A361EBE6A3690533A361E7E6404609F113
:103B48000041C4F81CB032463B4685E70AA3D3E9D6
:103B58000023FCF7F9FC06460F46C4E90C6745E765
:103B680000000000000000002DB29DEFA7C6EF3F47
:103B7800560E2DB29DEFEF3F9A9999999999E93F81
:103B880054060020A00300200000002010B594B0C7
:103B98002C22002109A804F01DFB0023CDE90333E2
:103BA800CDE90533194A01930793106C184940F081
:103BB80080501064126C02F080520192019A0293B4
:103BC8000A6822F4404242F400420A600A680E93EE
:103BD80002F44042029202210122102308A8029C0A
:103BE8000891CDE90B23FDF7D5FE00B1FEE70346AA
:103BF8000F2203A81946CDE90433CDE90633039211
:103C0800FEF798F800B1FEE714B010BD0038024086
:103C18000070004000281A4AF0B4B8BF4042194D5D
:103C2800194EB4BF2D232B2390422B70A8BF1046EA
:103C3800164B012230270BE0AC5403FB1100013274
:103C480086FB0341082A4FEAE373C3EBA10307D0BD
:103C580090FBF3F101F130040029EDD1AF54EEE708
:103C68000B4B2021DA1D03F8011F9342FBD10A23D5
:103C7800EB73102203490748F0BCFEF733BD00BFC1
:103C88003F420F00000000206766666640420F0052
:103C9800070000201406002038B5194C194D1A48A1
:103CA800FEF7A2FE94F845202B462B2122F00202B3
:103CB80003F8011B84F8452005F10F015F2203F882
:103CC800012B8B42FBD10A2310220E490E48EB73BD
:103CD800FEF708FD022894F8453004D023F00203CB
:103CE80084F8453038BD43F00203074884F845306E
:103CF800FEF77AFE0448BDE83840FEF739BE00BF3B
:103D0800A0030020940600201406002038B503788C
:103D18002B2B2FD01F4C204D94F8453023F0020355
:103D280084F84530027892B32946002301E00F2B2E
:103D380010D001F8012B10F8012F0133002AF6D119
:103D48000F2B07D05A1E2A44202101330F2B02F8CB
:103D5800011FFAD10A2310220F491048EB73FEF70E
:103D6800C1FC022894F8453008D023F0020384F8F7
:103D7800453038BDBDE83840FFF78EBF43F0020339
:103D880084F845300548BDE83840FEF7F1BD1346D4
:103D9800D8E700BFA0030020000000201406002080
:103DA800B0F5005F04D0012825D002280BD0704759
:103DB80010B5174C01F020FC164AE36B926CC01A40
:103DC800904202D810BD01F0A3BC01F015FCB4F874
:103DD8004630E063022B12D0042B0ED033B90E48C4
:103DE800FFF794FF01F0F8FCB4F8463001339BB2BA
:103DF800A4F8463010BD01F05DBC0023F8E701F0DF
:103E0800B7FCFFF707FFB4F8463001339BB2EFE782
:103E1800A003002000000020C898000838B5534DC2
:103E2800534C6B78627C9A422FD8227C622A21D02C
:103E3800A37C772B12D14F4D01F0DEFB2A6940F6A7
:103E4800B833801A984242D8EB689B1AB3F5C87FFA
:103E58002ED2FEF7FDFE7723A37438BD01F0CCFB0C
:103E6800444D94F84C30E860002BE5D04248FFF709
:103E78004DFFE1E787217722862B61742274D7D81A
:103E8800FEF7AEFE7728D3D038BDFEF7A9FE62282C
:103E98002CD06A78637C9A42F2D3237C622BC7D1F8
:103EA80077232374A37C8722772B6274C3D0D5E74A
:103EB80001F0A2FBEB68C01AB0F5FA6F0FD96FF0EA
:103EC800270001F0A1F9282001F07CF9C3E76FF081
:103ED800090001F099F9282001F074F9BBE71920CD
:103EE80001F092F92D2001F06DF9B4E7A37C622B63
:103EF80021D1204D01F080FBEB6840F6C412C01AB6
:103F0800904208D9282001F07FF90A2001F05AF9D7
:103F18006223A37438BD01F06FFBEB6840F6B8323A
:103F2800C01A904213D82A69D31AB3F5C87F16D29B
:103F3800FEF78EFEECE701F05FFB0E4D94F84C3077
:103F48002861002BD6D00D48FFF7E0FED2E72820E5
:103F580001F05AF96FF0090001F034F9D8E72D2083
:103F680001F052F9262001F02DF9D1E7540600207E
:103F780000000020A0030020D8980008D49800086A
:103F880030B5AA4C227A636883B05AB30B2B27D872
:103F9800DFE813F0D901CA016F006F007200FA015F
:103FA80015020C00E601C50111027200A04AA14BDE
:103FB80051785A7C9142C0F01D831A7C622A03D141
:103FC8008721772259741A7401F016FB00F52F70B7
:103FD800E06001F011FB206101F00EFB6368A06452
:103FE80000222272013B0A2B41D8DFE813F063005C
:103FF8007E00A0000801E400F000AB000B002B01DC
:10400800630150008C4A53783C2B00F0E1823E2B30
:1040180000F0FB825E2B00F09782762B00F02F8356
:10402800612B00F05383622B00F07783632B00F041
:104038003383642B00F08C83652B00F0C683662BDA
:1040480000F0CD83672B00F0E983682B00F0138420
:10405800692B00F00584732B00F01C846A2B00F098
:104068000E846B2B00F02884002001F0EFF803B0D9
:1040780030BD704B01221A6501F0BEFAE06001F014
:10408800ABFB01F0A3FB002263682272AAE701F0F0
:104098006FFBA9280BDD01F06BFBB0F5F27F40F355
:1040A800068194F84D3043F0010384F84D30FEF753
:1040B80073FFDCE701F096FB0828D8DD002001F04B
:1040C800C5F85E4B1B68019301F08CFB30308DF80E
:1040D800050001F08DFB00F1300301A88DF80730D1
:1040E800FFF714FE01F078FBC1E701F085FAE368F9
:1040F800C01A632840F20C8101F07EFAE368C01A06
:10410800C72810D901F078FAE36840F24B42C01A88
:10411800904240F28E8201F06FFAE36840F2DB527F
:10412800C31A9342A0D8642001F090F89FE7414D4C
:104138002B6D013B032B9AD8DFE813F0E301B101A3
:10414800CD01B90001F058FAE3689842C0F04881FF
:1041580001F052FAE36864339842C0F0188201F023
:104168004BFAE368364A334DC01A82FB0032C01757
:10417800A0EBE20032302128B8BF212001F044F83A
:104188000A2001F01FF82A4A6B7C52789A42C0F044
:1041980092822B7C622B03D1872277236A742B743B
:1041A800AB7C622B00F0AA8201F026FAC830E060EE
:1041B8007723AB745BE71F4D2B6D013B032B3FF659
:1041C80056AFDFE813F02E0160015801740000209B
:1041D80001F03CF894F84C30002B3FF448AF3C2BEE
:1041E80000F0D9813E2B00F027825E2B00F0798207
:1041F800752B00F0CE82002384F84C3037E70E4B45
:104208009B78662B3FF453AF637A012B00F09981BA
:10421800062B00F09681022B00F05582DA1E022A46
:1042280001D9072B43D1FFF703FA20E7A0030020A9
:104238005406002000000020C40500203098000823
:104248006766666601F0D8F9E368C01A63285FD923
:1042580001F0D2F9E368C01AB0F5967FFFF463AFB6
:1042680001F0CAF9E36840F24B42C01A904240F2AA
:10427800DD8101F0C1F9E368C31AB3F5A06FC0F09E
:10428800488201F0B9F9E36840F2BB72C31A93425D
:104298000DD8C94AC94B51785A7C9142C0F0C181A6
:1042A8001A7C622A03D18721772259741A74FFF77E
:1042B8001BFBDCE6C14D2B6D022B00F05081032B5C
:1042C80000F0A580012B7FF4D2AE01F095F9E368E8
:1042D800C01AB0F5C87FC0F0C18101F049FA0446A0
:1042E80001F05EFA2044B0F5DC7FC0F23F82502036
:1042F80000F068FF302000F087FFAF4B5B78C82BD9
:104308007FF6B5AE022300202B6500F09FFFAEE6D6
:1043180001F072F9E368C01A00F098FFA7E601F00F
:104328006BF96368E0605BE6A54BA649A6480122E5
:1043380073251D70FEF7D6F901F04EFA642000F0DF
:1043480085FF63684CE69E4B9E499F480122732572
:104358001D70FEF7C7F9002000F078FF63683FE69C
:1043680001F04AF9E06001F037FA01F02FFA974BB3
:104378005B783C2B00F07A813E2B00F0AF815E2BFE
:1043880000F0EB8163682BE68D4B8E498E48012245
:1043980073251D70FEF7A6F901F02EF900F5FA63F2
:1043A800C4E9030301F018FA01F010FA834A6368BC
:1043B8000121116514E601F01FF9E060F2E7804B76
:1043C80080498148012273251D70FEF78BF9002072
:1043D80000F03CFF01F000FA01F0F8F96368FFE52E
:1043E8006FF03B0000F010FF734A744B51785A7C11
:1043F8009142C0F0F9801A7C622A03D18721772282
:1044080059741A7401F0F8F86430E0602FE601F08E
:10441800AFF9044601F0C4F92044C7287FF747AF35
:1044280045E601F0E9F8E368C01AC72840F23B8185
:1044380001F09EF9044601F0B3F92044B0F5FA7F83
:1044480080F2B78101F094F9044601F0A9F93038F7
:10445800844280F2EE8195F95400632800F3E381E9
:10446800013040B285F8540000F0ACFE95F95500D3
:1044780000F0CAFEFBE5504B5B78DB2B40F25B811A
:1044880004232B65F3E54C4B5B78DB2B1AD92820EA
:1044980000F098FE6FF0270000F0B6FEE7E5282050
:1044A80000F090FE282000F0AFFE434A6B7C527863
:1044B8009A42C0F03A812B7C622B03D18722772362
:1044C8006A742B74002000F07DFE002000F09CFE32
:1044D80003232B65CBE56FF0270000F095FE002045
:1044E80000F070FE344A6B7C52789A42C0F02A8100
:1044F8002B7C622B7FF4BBAD872277236A742B74E5
:10450800B5E501F035F9044601F04AF92044B0F563
:104518009B7FC0F2C58001F02BF9044601F040F9F9
:1045280040F265332044984240F36681224A6B7C0E
:1045380052789A42DCD2FEF753FB62287FF497AD9B
:10454800E0E6FEF785FB92E5322000F03BFE3220E4
:1045580000F05AFE194B002283F8562087E51E20EA
:1045680000F030FE6FF0270000F04EFE124A6B7C20
:1045780052789A42BCD2FEF733FB62287FF477ADBB
:1045880003232B6501F028F901F020F96FE50020DD
:1045980000F03AFE6BE5627A052A00F0EE80062A02
:1045A80000F03181072A00F0E88094F8453043F0A4
:1045B800010384F845301EE6540600200000002060
:1045C80010060020DC980008CC050020C405002057
:1045D800282000F0F7FD6FF0270000F015FEB94B1A
:1045E800002283F8562042E5FEF7FAFA77287FF48E
:1045F8003EAD07E7FEF7F4FA77283FF4E5AC00F0A4
:10460800FBFF00F59670E060E3E46FF0270000F030
:10461800D9FD282000F0F8FDAA4B002283F8562087
:1046280025E5FEF7DDFA62287FF441AE00F02CFEA6
:104638001DE500F015FE1AE5637A1A1F012A01D953
:10464800072BB2D1A04BA149A1483E2501221D70DC
:10465800042322726360FEF745F8CCE500F0CCFF36
:10466800E368C01A800800F0F1FD00E5964A994910
:10467800137097480122FEF735F86368B0E46FF0CD
:10468800310000F09FFD6FF0310000F0BDFD8D4B53
:10469800002283F85620EAE4012323726360E6E4EB
:1046A800FFF7BCFBE3E400F0A7FFE368C01A40088B
:1046B80000F0CCFDDBE4FEF793FA77283FF470AD09
:1046C8006223AB74D3E4FEF717FED0E46FF0630007
:1046D80000F078FD642000F097FDC8E47A4A7B4931
:1046E800C6E7637A042B75D0072B73D0062B7FF4AB
:1046F8005CAF04220123626023727CE5002000F095
:1047080061FD002000F080FD062201236260237213
:104718004EE53C2000F09AFDA9E4642000F052FD2B
:104728006FF0630000F070FDA1E4FEF759FA7728F6
:104738007FF49DACC6E6282000F066FD002000F05E
:1047480041FD94E4FEF74CFA62287FF490AC97E6BA
:10475800012202232272636089E45B4B5E495C4854
:10476800732501221D70FDF7BDFF0BE6642000F0E4
:1047780029FD3C2000F048FD79E4534B5549544845
:104788003C2501221D700A2322726360FDF7AAFFEF
:1047980031E5637A032B7FF608AF4B4B4D494C4804
:1047A8003C2501221D70092322726360FDF79AFFE0
:1047B80021E52D2000F028FD282000F003FD474BBF
:1047C8005B78C82B7FF653AC9CE501220323227249
:1047D80063604CE405220123626023720BE53F4BC2
:1047E8001878002837D10122042322726360354BE0
:1047F800012283F856203AE4642000F0E3FC2820E4
:1048080000F002FD33E4304D32492B7001220323BE
:104818002F4822726360FDF765FFECE4012205234F
:104828002272636023E495F85530013B85F85530D2
:104838001AE600F0B5FF044600F09AFF30388442CB
:1048480013DA95F9553095F95400632B2FDC0133B1
:1048580085F8553008E60123E370FEF787F9C6E7C7
:10486800012207232272636001E4642085F8540062
:1048780085F85500F8E500F0FDFCFFF7F8BB9378E4
:10488800662B1CD0FFF730F80E4B002283F8562019
:10489800FFF7EDBB93780A20303B00FB03F032387A
:1048A8006FF031023221FEF7A7F9FFF7E0BB0138BC
:1048B80040B285F85400D7E5FEF768FAE4E7FEF75A
:1048C800C7F9E1E70000002010060020E49800087E
:1048D800CC050020E0980008DC9800085406002069
:1048E8002DE9F04F0024ADF2B44DFCF7A5FAFFF71F
:1048F8004DF9CDE92444CDE926448B4B0494289402
:104908001A6B8A488A4E42F004021A631A6B02F044
:1049180004020492049A05941A6B42F001021A6385
:104928001A6B02F001020592059A06941A6B42F07E
:1049380002021A631B6B03F00203069322464FF42C
:104948008351069BFCF712FC22464FF49871794874
:10495800FCF70CFC784B7748269442F2030224A912
:10496800CDE924230125FCF721FB4FF4835324A927
:104978006E48CDE92435CDE92644FCF717FB4FF402
:10498800987324A96B482493CDE925542794FCF700
:104998000DFB224621460620FCF79AFA0620FCF772
:1049A800CDFA224621460720FCF792FA0720FCF7A9
:1049B800C5FA224621462820FCF78AFA2820FCF767
:1049C800BDFA5E4BB4604FF416570C253046C6E965
:1049D8000344C6E90644C6E900377561FDF752FE8F
:1049E80000B1FEE7564B5749DFF8788198600246D8
:1049F8004FF480441846DA60C3E90522C3E9072268
:104A0800C3E900181C61FCF79BFD024600B1FEE7F4
:104A18004D4B4E49C3F804801846C3E90222C3E946
:104A28000442C3E906221A621960FCF789FD0346AD
:104A380000B1FEE7DFF8249124904FF08042484609
:104A480044F6206ACDE92533CDE92733CDE929336A
:104A5800C9E90133C9F81030CDE90F33C9F800208E
:104A6800C9F80CA0FDF7C2FB034600B1FEE70FA989
:104A78004846CDE90F33FDF77FFC034600B1FEE75A
:104A88004FF0600B042224A94846CDE9253328932A
:104A9800CDF890B0FDF7F4FB044600B1FEE7DFF86F
:104AA800C080484600F0C6FC294BC8F80030404694
:104AB800CDE90F44CDE92444CDE92644CDE9284485
:104AC8002A94C8E90144C8F80CA0C8F81040FDF7BA
:104AD8008DFB034600B1FEE70FA94046CDE90F3331
:104AE800FDF74AFC034600B1FEE7042224A940462C
:104AF800CDF890B0CDE925332893FDF7C1FB0446E6
:104B080000B1FEE7404600F095FC124B124A5F6088
:104B18001846C3E90244C3E90445C3E906441A60D8
:104B2800FDF7B0FD00B3FEE7003802400000024088
:104B38001406002000080240000031100014014053
:104B4800F8040020005C0040A0040020005400404D
:104B580000040040CC050020001001405806002049
:104B680088050020A08601008148824F824DFDF70C
:104B780019FA00214FF4846224A80C4603F02AFB9A
:104B88005222642321468DF8EC218DF84C238DF8B0
:104B9800AC240FA85422ADF8EE31ADF84E33ADF881
:104BA800AE348DF8074003F015FB22464FF49071A0
:104BB8007248FCF7DBFA22464FF480517048FCF744
:104BC800D5FA01224FF480716C48FCF7CFFA022124
:104BD80024A8FDF747FF022304216A488DF8EC3129
:104BE800FDF70AFA04216848FDF706FA33686749B1
:104BF800DA688988ADF8084042F04002DA60DA687D
:104C0800ADF80C1042F02002DA60022203A928460F
:104C1800FDF768FD022202A92846FDF785FD9DF8EB
:104C280009309DF808207B704FF4C8703A70FCF783
:104C38002BF99DF808302A2BE7D14F48FDF7D4FE11
:104C48000BAA40F6690110231180937020210323D9
:104C5800D15401330F2BFBD10A234D48D3730023C2
:104C6800D15C21B10A2902D0C1540133F8E72022CE
:104C78000E2B02DCC2540133FAE70A23C373102255
:104C880043493D48434DFDF72DFD95F84E301BB97E
:104C980000F0B2FCE860F8E7DFF80C91DFF80CA14F
:104CA800DFF80C813C4C334F3F230122414620461C
:104CB80089F80030FDF716FD082239462E48FDF721
:104CC80033FD042235492046FDF72EFD0DF107017D
:104CD80024A801F047F89DF80730012B3FD0FFF7D3
:104CE8004FF9D5F848B000F087FCABEB0000B0F501
:104CF800167F14D995F84D30D90610D5DAF800305A
:104D080007A993ED000B0A2003F00EFA07A8FEF797
:104D1800FDFF95F84D3023F0100385F84D3095F8D8
:104D28004530DA070CD596F83920202A08D11C48D6
:104D3800FEF7ECFF95F8453003F0FE0385F84530A3
:104D48005B07B1D5C820FCF79FF81648FEF7DEFFD1
:104D580095F8453023F0040385F84530A4E70FA9FA
:104D680024A801F029F8042124A801F0BDF9B6E728
:104D78004C050020C405002014060020000802404D
:104D880000000240580600208805002030980008DE
:104D980000000020A0030020CC05002054060020BD
:104DA800EC980008F098000810060020F404002091
:104DB800E89800080000000038B5574C94F84E30C9
:104DC800002B59D0554B0122D91D84F84F2013F8D8
:104DD800012F0A2A20D0FAB18B42F8D1504AD37950
:104DE8000A2B19D113782B2B60D03F2B68D04C2B72
:104DF8006BD0542B47D0522B3FD0532B6AD06A2B01
:104E080015D094F85020474842F0010284F8502009
:104E1800BDE83840FEF77ABF94F85030414843F077
:104E2800010384F85030BDE83840FEF76FBF53786F
:104E3800502B60D0492B62D0442B64D0452B02D133
:104E4800394B3A49196093782A2B48D02F2B0AD12D
:104E5800354B1D682EA3D3E90023D5E90001FBF7E4
:104E68009DFCC5E9000194F84D3043F0100384F827
:104E78004D3000F0C1FBA06438BD082201236260F8
:104E880023722B48C4E753783C2B16D03E2B14D002
:104E98005E2B12D0752B10D094F85130002BF0D027
:104EA800002384F84C3084F85130EAE71022214975
:104EB8002148BDE83840FDF715BC84F84C30EBE7D5
:104EC8001E48BDE83840FEF721BF10211C48FCF7FA
:104ED80051F9D6E70022012362602372D1E7124B11
:104EE8001D680BA3D3E90023D5E90001FBF72CFBD0
:104EF800C5E90001B7E70C4B12491960A3E70A4B53
:104F0800114919609FE7084B104919609BE700BFDA
:104F18009A9999999999F13FA0030020C305002017
:104F2800C4050020F4980008F40400204000002084
:104F3800FC9800080000002014060020F8980008DB
:104F4800000802402800002030000020380000201F
:104F580038B5164C20780A2817D063780A2B14D055
:104F6800A3780A2B11D058B1114B1B78834201D07A
:104F7800FDF7A4FD0F4B93F856300BB1207800B91C
:104F880038BDBDE83840FDF7F1BD094A0A4C92F832
:104F980050300A490A4843F002032B2582F8503062
:104FA80025700122BDE83840FDF79CBB540600205F
:104FB800A00300200000002010060020F49800083C
:104FC800CC050020074A904207D0074A904206D0F5
:104FD800064B032283F850207047FFF7EDBEFFF71A
:104FE800B7BF00BF14060020CC050020A003002096
:104FF800214B984215D0214A904200D07047DA6B75
:10500800012A23D0DA6B022A29D0DA6B042A2CD0A1
:10501800DA6B082A2CD0DB6B102BEFD11848FEF77F
:1050280075BEC36B012B0ED0C36B022B14D0C36BA0
:10503800042B0ED0C36B082B14D0C36B102BDDD1FF
:105048001048FEF763BE1048FEF760BE0F48FEF733
:105058005DBE0F48FEF75ABE0E48FEF757BE0E4813
:10506800FEF754BE0D48FEF751BE0D48FEF74EBE82
:105078000C48FEF74BBE00BFCC05002014060020EC
:105088004899000820990008009900082899000804
:105098001099000808990008309900081899000824
:1050A8003899000840990008F0B5044685B0FDF726
:1050B8009BFC2068204AC368944223F02003C36005
:1050C80034D01E4EB44215D04FF0FF324368174615
:1050D8002A442B46202103F8011B9A42FBD10A23BC
:1050E800B442EB5516D02268D36843F02003D3604E
:1050F80005B0F0BD124B0DF1FF3203F1100513F8A6
:10510800011F02F8011FAB42F9D107270D4D3A469E
:105118004368DDE70A4A0DF1FF330DF10F0013F87C
:10512800011F02F8011F8342F9D1DCE70327064D6E
:10513800024E3A46ECE700BFCC05002014060020DA
:10514800FFFFFF1FC405002054060020124A10B5B7
:10515800124C824294F8503013D09B0707D4104B5E
:105168001B78692B04BF012384F84E3010BD0D480D
:10517800FFF79AFF94F8503023F0020384F8503078
:10518800EDE7DA07E9D5FFF78FFF94F8503003F021
:10519800FE0384F85030E0E714060020A003002046
:1051A80000000020CC0500200268044B9A4200D081
:1051B800704710210248FBF7DDBF00BF0008004020
:1051C8000008024010B540B2C8240C4B04FB00F4A0
:1051D800002C187008DB012240210948FBF7C6FFA4
:1051E800084B1B689C6310BD002240210448FBF754
:1051F800BDFF044B1B6864429C6310BD0C06002075
:10520800000002405806002010B540B2C8240C4BDC
:1052180004FB00F4002C187008DB01222021094847
:10522800FBF7A4FF084B1B689C6310BD00222021DC
:105238000448FBF79BFF044B1B6864429C6310BD4A
:105248000E060020000002408805002010B5044624
:10525800FFF7B8FF2046BDE81040FFF7D5BF00BFF5
:1052680008B51420FFF7AEFF6420BDE80840FFF73B
:10527800CBBF00BF08B56420FFF7A4FF3220BDE80C
:105288000840FFF7C1BF00BF08B56420FFF79AFFC9
:105298000A20BDE80840FFF7B7BF00BF82B00C4B3B
:1052A800002100915A6C42F480425A645A6C02F40C
:1052B80080420092009A01911A6C42F080521A645E
:1052C8001B6C03F080530193019B02B0704700BF31
:1052D800003802402DE9F04303683A4A8BB00024B5
:1052E8009342CDE90544CDE90744099443D0364AB1
:1052F800934202D00BB0BDE8F083344D02942B6B7F
:10530800334843F004032B632B6B03F0040302932D
:10531800029B03942B6B43F001032B632B6B03F06D
:10532800010303934FF012094FF400734FF0010883
:105338000327042605A9039A0996CDE90539CDE97D
:105348000787FBF733FE4FF4807305A921480593BF
:10535800CDE90698CDE90876FBF728FE04942B6C76
:1053680043F400032B642B6C03F400030493049BA5
:105378000BB0BDE8F083154D00942B6B164843F035
:1053880002032B632B6B03F002030093C0230593E6
:1053980012220123069207930322042305A9CDE9CB
:1053A8000823009EFBF702FE01942B6C43F40013C4
:1053B8002B642B6C03F400130193019B0BB0BDE825
:1053C800F08300BF00540040005C004000380240F9
:1053D8000008024000000240000402400368B3F1E4
:1053E800804F82B012D0114A934201D002B0704768
:1053F8000F4B002201921A6C42F002021A641B6CD5
:1054080003F002030193019B02B0704703F50E33CA
:10541800002200921A6C42F001021A641B6C03F01D
:1054280001030093009B02B0704700BF00040040D6
:105438000038024030B5026889B00023B2F1804FCD
:10544800CDE90333CDE9053307931AD019498A42C8
:1054580001D009B030BD184A0293136B174843F0C6
:1054680001031363136B03F00103029380220223E9
:1054780003A9029C0793CDE90323FBF797FD09B025
:1054880030BD02F50E320193136B0D4843F0020351
:105498001363136B03F0020301930222012303A990
:1054A8000824019D0793CDE90342FBF77FFD09B06E
:1054B80030BD00BF00040040003802400000024038
:1054C8000004024070B50368344A8AB0002493424D
:1054D800CDE90544CDE90744099431D0304A9342D7
:1054E80001D00AB070BD2F4B03945A6C2E4842F07D
:1054F80020025A645A6C02F020020392039A049420
:105508001A6B42F004021A631B6B03F00403049342
:10551800C022022305A90592069303220823012528
:105528000993CDE90752049EFBF740FD2246214628
:105538004720FBF7CDFC4720FBF700FD0AB070BD04
:10554800184B01945A6C194842F010025A645A6C6C
:1055580002F010020192019A02941A6B42F00102C1
:105568001A631B6B03F0010302934FF4C063012419
:1055780005A90322059302250723CDE90823029EE6
:10558800CDE90654FBF712FD224621462520FBF7FC
:105598009FFC2520FBF7D2FC0AB070BD001001402B
:1055A8000014014000380240000802400000024098
:1055B800704700BFFEE700BFFEE700BFFEE700BF81
:1055C800FEE700BF704700BF704700BF704700BFCD
:1055D800024A136801331360FBF748BCF403002048
:1055E8000148FDF7F9B800BFCC0500200148FDF7D8
:1055F800F3B800BF14060020014B1868704700BFBD
:10560800F40300200120FBF7B9BD00BF0220FBF71F
:10561800B5BD00BF0148FCF7F9BC00BF4C05002030
:105628004FF40050FBF7AABD0C4A08B5136833B114
:1056380018446946884208D81060184608BD084BC7
:105648001360184469468842F6D902F099FD0C2384
:1056580003604FF0FF33184608BD00BFF803002071
:10566800C00600201049114BD1F8882042F470027E
:1056780010B4C1F888201A680D4C002042F00102CD
:105688001A6098601A6822F0847222F480321A60D4
:105698005C601A684FF0006422F480221A60D860B7
:1056A8008C605DF8044B704700ED00E00038024064
:1056B8001030002438B5124CFFF79EFF2368C31A38
:1056C8000A2B15D90F4A92F90020002A11DD0E493C
:1056D8000A8801320A800D4920600A6801EB8205B8
:1056E80001320F2A6B60C8BF00230A60C8BF0B6075
:1056F80038BDF0D004490A88013A0A80EBE700BFB8
:10570800AC0600200E060020B00600200004002091
:1057180038B5124CFFF770FF2368C31A0A2B15D946
:105728000F4A92F90020002A11DD0E490A88013239
:105738000A800D4920604A6C01EB820501320F2A6C
:10574800AB64C8BF00234A64C8BF4B6438BDF0D0FF
:1057580004490A88013A0A80EBE700BFA406002042
:105768000C060020B80600200004002000000000FD
:1057780008B5094BB3F90000FAF77CFE04A3D3E996
:105788000023FAF7E1FEFBF7A1F908BDAFF30080AB
:105798000000000000903740B8060020000000001C
:1057A80008B5094BB3F90000FAF764FE04A3D3E97E
:1057B8000023FAF7C9FEFBF789F908BDAFF30080AB
:1057C8000000000000903740B0060020014B002286
:1057D8001A807047B0060020014B00221A807047DB
:1057E800B8060020014BB3F900007047B806002046
:1057F800014BB3F900007047B00600204A088A211F
:1058080002F00CBC152907D80122054B8A40134029
:1058180013B10174002070476FF00700704700BF94
:105828000B00300001F05CBEF0B583B002AB002481
:1058380003F8014D0E46174601211A46054602F0A7
:1058480023FC0446D8B9012F9DF807301AD0042E3E
:105858004CD8DFE806F02823032D1E0003F0FB06D2
:10586800B3420CD032460121284602F0D7FB044649
:1058780028B985F830616969284601F04FFE20464D
:1058880003B0F0BD042E31D8DFE806F02B26211C2A
:10589800170003F07F06B342E4D1F0E703F0D70620
:1058A800B342DFD1EBE703F0EF06B342DAD1E6E724
:1058B80003F0BF06B342D5D1E1E743F08006B34217
:1058C800D0D1DCE743F04006B342CBD1D7E743F071
:1058D8000406B342C6D1D2E743F02806B342C1D189
:1058E800CDE743F01006B342BCD1C8E76FF003041C
:1058F800C5E700BF30B583B002AA00230C4602F802
:10590800013D012102F0C0FB78B99DF80730C3F3CF
:105918000012C3F3C005C3F380012270C3F38012E1
:10592800DB09A5706170E270237103B030BD00BF60
:1059380030B583B00D460DF10202F821044602F09D
:10594800AFFB08B103B030BD01AA0421204602F024
:10595800B3FB0028F6D1BDF802201AB92B68A36161
:1059680003B030BD019BB3FBF2F32B60F7E700BF38
:10597800037F0B700020704730B583B00D460DF1E2
:1059880006022021044602F08BFB38B9BDF8063028
:1059980033B1DB0001222B602362227703B030BDD4
:1059A800236A2B60207703B030BD00BF052943D898
:1059B800F8B58AB100EB81040023D4F834E04FF045
:1059C800010C4E1E154607460C46042E29D8DFE862
:1059D80006F020170E072B00944601239646F0E7A1
:1059E8005B00FE22602102F031FB10B1F8BD80F8A7
:1059F8002BC039194DB1012381F828300020F8BD9A
:105A080080F82AC03919002DF5D181F82850284688
:105A1800F8BDCEF34F22442102F00CFB0028E8D059
:105A2800E4E780F828C0E4E71B01EF22602102F0D8
:105A38000DFB0028DDD0D9E76FF00300704700BFE9
:105A4800052905D80144002091F8283013707047C3
:105A5800002313706FF00300704700BF431893F8DA
:105A6800283053B170B516460D460446052922D88C
:105A7800DFE801F00F191517080800EB8101184637
:105A88004A637047C2F34F22642102F0D3FA08B187
:105A980070BD626304EB85040020666370BDE26339
:105AA800F8E72264F6E7C2F34F22442102F0C2FA73
:105AB8000028EFD0ECE76FF0030070BD30B5044666
:105AC80083B0154605292ED8DFE801F0030A081A25
